:100000000C945C000C9479000C9479000C947900A9
:100010000C9479000C9479000C9479000C9479007C
:100020000C9479000C9479000C9479000C9479006C
:100030000C9479000C9479000C9479000C9479005C
:100040000C94C0010C9479000C9479000C94790004
:100050000C9479000C9479000C9479000C9479003C
:100060000C9479000C947900000000070002010054
:100070000003040600000000000000000102040864
:100080001020408001020408102001020408102002
:10009000040404040404040402020202020203032E
:1000A0000303030300000000250028002B000000CC
:1000B0000000240027002A0011241FBECFEFD8E043
:1000C000DEBFCDBF11E0A0E0B1E0E8E4F5E002C0A2
:1000D00005900D92AC32B107D9F711E0ACE2B1E076
:1000E00001C01D92A533B107E1F70E9495020C945F
:1000F000A2020C94000060E088E00E94890161E0A7
:1001000083E00E9489016CE271E080E090E00E944F
:10011000340261E088E00E94890160E083E00C9491
:100120008901CF93DF93C0E0D1E005C0888122969A
:1001300061E00E94510181E0C834D807B9F7DF912E
:10014000CF910C947B00CF93C82F80FD02C060E05C
:1001500001C061E08EE00E948901C1FF02C061E040
:1001600001C060E080E1CF910C948901CF92DF92D1
:10017000EF92FF920F931F93CF93DF93CDB7DEB72C
:1001800027970FB6F894DEBF0FBECDBFC82E162F2F
:1001900060E082E00E94890161E083E10E948901C0
:1001A00061E082E10E94890161E081E10E948901B0
:1001B000812F0E94A30060E089E00E94890197E0FE
:1001C000E4E2F1E0DE01119601900D929A95E1F7DB
:1001D000EE24E394F12CEC0EFD1E00E010E0DD2493
:1001E000C7FCD094C601002E02C0959587950A944D
:1001F000E2F780FF02C061E001C060E0F7018081AA
:100200000E9489010F5F1F4FFFEFEF1AFF0A0630B0
:10021000110541F727960FB6F894DEBF0FBECDBF8C
:10022000DF91CF911F910F91FF90EF90DF90CF90D2
:10023000089561E083E00E94890160E083E00C940E
:10024000890160E081E10E94B6000C9419018330BD
:1002500069F028F48130A1F0823011F514C08630A5
:10026000B1F08730C1F08430D9F404C080918000AF
:100270008F7703C0809180008F7D809380000895E8
:1002800084B58F7702C084B58F7D84BD0895809139
:10029000B0008F7703C08091B0008F7D8093B00055
:1002A0000895CF93DF9390E0FC01E458FF4F449111
:1002B000FC01E057FF4F8491882341F190E0880FC3
:1002C000991FFC01E255FF4F25913491D9018C55BE
:1002D0009F4FFC0185919491C82FD92F9FB7F89417
:1002E0008C91611106C0409584238C93888184236E
:1002F00008C0623041F4242F209582238C9388819A
:10030000842B888302C0842B8C939FBFDF91CF9175
:1003100008950F931F93CF93DF931F92CDB7DEB74E
:10032000282F30E0F901E859FF4F8491F901E45892
:10033000FF4F1491F901E057FF4F04910023D1F0D2
:10034000882321F069830E9427016981E02FF0E072
:10035000EE0FFF1FEC55FF4F85919491DC019FB785
:10036000F8948C91611103C01095812301C0812BF9
:100370008C939FBF0F90DF91CF911F910F910895A4
:100380001F920F920FB60F9211242F933F938F93CA
:100390009F93AF93BF9380912C0190912D01A091D9
:1003A0002E01B0912F0130913401232F2D5F2D3775
:1003B00020F40196A11DB11D05C0232F2A570296D6
:1003C000A11DB11D2093340180932C0190932D0128
:1003D000A0932E01B0932F018091300190913101B3
:1003E000A0913201B09133010196A11DB11D8093FE
:1003F000300190933101A0933201B0933301BF914A
:10040000AF919F918F913F912F910F900FBE0F90C1
:100410001F9018950F931F939FB7F8940091300188
:1004200010913101209132013091330186B5A89BA2
:1004300006C08F3F21F00F5F1F4F2F4F3F4F9FBFD1
:10044000322F212F102F0027080F111D211D311DC4
:1004500042E0000F111F221F331F4A95D1F7B80148
:10046000C9011F910F910895CF92DF92EF92FF92F1
:10047000CF93DF936B017C010E940A02EB010EC057
:100480000E940A026C1B7D0B683E734038F081E0CD
:10049000C81AD108E108F108C851DC4FC114D104D1
:1004A000E104F10469F7DF91CF91FF90EF90DF90C5
:1004B000CF900895789484B5826084BD84B58160BE
:1004C00084BD85B5826085BD85B5816085BDEEE65C
:1004D000F0E0808181608083E1E8F0E0108280813B
:1004E00082608083808181608083E0E8F0E08081A9
:1004F00081608083E1EBF0E0808184608083E0EBC9
:10050000F0E0808181608083EAE7F0E080818460B0
:10051000808380818260808380818160808380810C
:10052000806880831092C10008950E945A020E9440
:100530009100C0E0D0E00E9421012097E1F30E94E9
:080540000000F9CFF894FFCF91
:10054800080013000E000F00100011001200020036
:10055800030004000500060007000D000C000B0056
:0C0568000A0009000506070D0C0B0A0034
:00000001FF
